:0200000012C02C
:14002600CFE5D4E0CDBFDEBFC051D0400AEA08830024E0E6AB
:14003A00F0E010E0E437F10711F00192FBCF0083E6E2F0E066
:14004E00A0E6B0E010E0E632F10721F0C89531960D92F9CFEC
:140062006BD1FFCF222428BA8FEF87BB83E085BB8CE084BB4A
:1400760022BA80EF81BB089508951801015010402220D9F7E9
:14008A003320C9F7089585D10CC0A8954427552702C04F5FFC
:14009E005F4F4F35E4E05E07D0F3015010400030010789F7D7
:1400B20077D108950395039503950395039503950395039595
:1400C600039503950395039503950395039503950395039536
:1400DA00039503950395039503950395039503950395039522
:1400EE0003950395039503950395039503950395039503950E
:140102000395039503950395039503950395039503950395F9
:140116000395039503950395039503950395039503950395E5
:14012A000395039503950395039503950395039503950395D1
:14013E000395039508952BD144273FC082E0809372009C995E
:1401520009C0209072003324822D8F5F809372002220A9F753
:1401660080917200813009F42FC0A2DFA1DFA0DF9FDF222421
:14017A0020926F009C9B03C081E080936F0082E0809372008C
:14018E009C9B09C0209072003324822D8F5F80937200222080
:1401A200A9F780917200813009F410C020906400220C2092B4
:1401B600640020906F003090640032283092640043954830BE
:1401CA0008F4BECFE9D00895A49AAC9801E010E05ADFA4987A
:1401DE00AC9A6ADF69DF68DF67DF9C9B5DC081E0809372006F
:1401F20059C082E0809372009C9909C0209072003324822DD3
:140206008F5F809372002220A9F780917200813009F448C056
:14021A0082E0809372009C9B09C0209072003324822D8F5FD3
:14022E00809372002220A9F780917200813009F435C081DFCF
:1402420080917200813009F42FC0209064002092690077DF03
:1402560080917200813009F425C020906400209268006DDF04
:14026A0080917200813009F41BC0209064002092670063DF05
:14027E0080917200813009F411C0209064002092660059DF06
:1402920080917200813009F407C0209064002092650002C073
:1402A6009C9BA5CFA498AC9A2090680030906900320C2090E8
:1402BA006700320C20906600320C30926F00209065003214AB
:1402CE00A1F42090690020926C002090680020926B0020906B
:1402E200670020926E002090660020926D0020906500209285
:1402F6006A00A498AC9A089582E08BB988E18AB986E080BD76
:14030A00222420BC87E689B908955D9BFECF0CB908955F9B50
:14031E00FECF0CB10895F8949FDEAADEE9DF83E085BF22245E
:140332002BBE29BE78940895F4DFA498AC9A23C047DF00914F
:140346006C00E5DF00916B00E2DF00916E00DFDF00916D00FB
:14035A00DCDF00916A00D9DF00916A00D6DF222420926F000A
:14036E0008C00AE010E08DDE80916F008F5F80936F0080916D
:140382006F00883CA0F3DCCF0895FA92EA92DA92CA92BA923D
:14039600AA927A936A935A934A930895E1E049915991E0FD44
:1403AA00089569917991E1FD0895A990B990E2FD0895C990CC
:0C03BE00D990E3FD0895E990F9900895AE
:00000001FF
