:0400000002001132B7
:03000B0002003FB1
:0B002400D200C201C202C20302000EA3
:03000E000200D11C
:20002F00758901758C4C758A00D2AFD2A9D28C22C0E0C0D0758CDC758A00051020000B742A
:20004F009C25105005751000051174F925115003751100E5117008D201D202D203804C742A
:20006F0001B51108C201D202D203803F7402B51108D201C202D20380327403B51108D201FD
:20008F00D202C20380257404B51108C201C202D20380187405B51108D201C202C203800BAB
:2000AF007406B51106C201D202C203D0D0D0E032AE82AF838E048F051EBEFF011FEC4D70E1
:2000CF00F3227E007F007D00C007C006C00512002FD005D006D00730012030021D30031A80
:2000EF00C2B08E828F83C007C006C0051200BFD005D006D007D2B00201E9200124300221B2
:20010F0030031EC2B0C2B28E828F83C007C006C0051200BFD005D006D007D2B0D2B20201C9
:20012F00E930012020021D30031AC2B28E828F83C007C006C0051200BFD005D006D007D2DD
:20014F00B20201E930012330022020031DC2B0C2B18E828F83C007C006C0051200BFD0050D
:20016F00D006D007D2B0D2B1807020011F20021C300319C2B18E828F83C007C006C005120B
:20018F0000BFD005D006D007D2B1804E30012320022020031DC2B2C2B18E828F83C007C058
:2001AF0006C0051200BFD005D006D007D2B2D2B1802820012530022220031FC2B0C2B1C2E0
:2001CF00B28E828F83C007C006C0051200BFD005D006D007D2B0D2B1D2B274B8C39EF5820A
:2001EF00740B9FF583C007C006C0051200BFD005D006D007ED700974142EFEE43FFF8008F1
:20020F00EE24ECFEEF34FFFFC374B89E748B8FF063F08095F050087D017EB87F0BD200EFF8
:11022F0020E7030200E67D007E007F00C2000200E6A8
:06001E00E4787FF6D8FD36
:0D001100758120120240E582600302000E9E
:0402400075820022A1
:00000001FF
