:0E0A9F00C0F9A4B0999282F88090FEFDFBF79A
:0B0AB900EF1FAC0670011E4C70F6220F
:100A1E00E4D2907F08FE120AB9C2907F507E001277
:100A2E000AB9D2907F0E7E00120AB9A2907F147E70
:040A3E0000020AB9EF
:100A4200E4FB7D08C290EBC313FBD29030900343CA
:0D0A520003807F087E00120AB9DDE9AF03C2
:010A5F002274
:0809D1001209D9120A1E7FCCA5
:0209D900AD0768
:1009DB007B08C290ED1392907F0A7E00120AB9D267
:0E09EB0090EDC313FDDBEB7F087E00020AB91E
:10099E00E4F513FF1209D47F441209D17FBE120968
:1009AE00D9120A428F0B120A428F0CE50B540FF527
:1009BE000DE50BC4540FF50BE50CC454F0F50C45C6
:0209CE000BFF1D
:0109D0002204
:1009F900AA05A9071209D47F4E1209D9AF01120914
:100A0900D9AF021209D97F7F1209D17F481209D1C2
:050A19007FB80209D9BD
:100A60001209D47FBE1209D9120A42120A42120A8E
:080A7000428F08120A428F0AAE
:010A7800225B
:100A8F00758901758CEC758A78D28CD2AFD2A92278
:03000B00020800E8
:10080000C0E0C0F0C083C082C0D075D000C000C0BE
:0B08100002C003C004C005C006C00702
:10081B00C28CC2AF758CEC758A78D28CD2AF0509BD
:10082B00E509C394C8403875090012099E750E007E
:10083B008F0FE50F30E722E50DF4FF540F75F00F26
:10084B0084FDE50FF4FBEB2DFD751000ED547FF5EA
:10085B0011EF04540FF50D8006850E10850F1175E1
:10086B0080FFE51214601E1460381470030208FA3E
:10087B002403600302091CE50D75F00AA4C4540F90
:10088B00900A9F8065AE10AF117C007D0A1209495A
:10089B00749F2DF582740A3CF583E493547FF580A5
:1008AB00806FC3E511940AE51094005010C3E50F57
:1008BB009480E50E940050057580FF8054D3E50FAE
:1008CB009480E50E9400400CE511940AE510940019
:1008DB005002803AAE10AF117C007D0A12094974A8
:1008EB009F2FF582740A3EF583E493F5808022D323
:1008FB00E50F9480E50E94004017AE10AF117C000D
:10090B007D0A120949D3EF9400EE940040037580E1
:10091B00BFE512900AA993F5A00512E512C3940442
:05092B004003751200FD
:10093000D007D006D005D004D003D002D000D0D04C
:09094000D082D083D0F0D0E03267
:100A7900120A8FC3E5119423E51094004004C2A61D
:060A890080F1D2A680ED11
:03000000020AAD44
:0C0AAD00787FE4F6D8FD758113020A7909
:10094900BC000BBE0029EF8DF084FFADF022E4CC92
:10095900F875F008EF2FFFEE33FEEC33FCEE9DEC5B
:10096900984005FCEE9DFE0FD5F0E9E4CEFD22EDA1
:10097900F8F5F0EE8420D21CFEADF075F008EF2FEB
:10098900FFED33FD4007985006D5F0F222C398FDDC
:050999000FD5F0EA2279
:00000001FF
