:03000000020006F5
:03005F0002000399
:0300030002008B6D
:100062007E007F007CF47D01EC24FFFAED34FFFB7F
:100072008A048B05EA4B70F00EBE00010FC3EE94AA
:1000820064EF6480948040DC2275B000D2B212002A
:0B0092006275B0FFC2B212006280EE87
:06003500E478FFF6D8FD9F
:100013007900E94400601B7A009000A1780175A083
:1000230000E493F2A308B8000205A0D9F4DAF2754C
:02003300A0FF2C
:10003B007800E84400600A790175A000E4F309D860
:10004B00FC7800E84400600C7900900001E4F0A318
:04005B00D8FCD9FAFA
:0D00060075810712009DE582600302000372
:04009D007582002246
:00000001FF
