:03000000020006F5
:03005F0002000399
:0300030002008B6D
:200062007E007F007CF47D01EC24FFFAED34FFFB8A048B05EA4B70F00EBE00010FC3EE949B
:15008200E8EF6480948340DC22D2B2120062C2B212006280F405
:06003500E478FFF6D8FD9F
:200013007900E94400601B7A0090009B780175A000E493F2A308B8000205A0D9F4DAF275F8
:02003300A0FF2C
:20003B007800E84400600A790175A000E4F309D8FC7800E84400600C7900900001E4F0A3C3
:04005B00D8FCD9FAFA
:0D000600758107120097E582600302000378
:04009700758200224C
:00000001FF
