:03000000020006F5
:03005F0002000399
:0300030002007484
:10006200AE82AF838E048F051EBEFF011FEC4D7062
:10007200F322758001902710120062E58025E0F5D9
:0A00820080E58070F075800180EBCE
:06003500E478FFF6D8FD9F
:100013007900E94400601B7A00900090780175A094
:1000230000E493F2A308B8000205A0D9F4DAF2754C
:02003300A0FF2C
:10003B007800E84400600A790175A000E4F309D860
:10004B00FC7800E84400600C7900900001E4F0A318
:04005B00D8FCD9FAFA
:0D00060075810712008CE582600302000383
:04008C007582002257
:00000001FF
