:1004500052483A0054656D703A00436865636B3AE0
:10046000205472756500446174613A2000436865E8
:10047000636B3A2057726F6E670053656E736F72CD
:0F048000204E6F7420436F6E6E65637465640069
:07052900050E0000000000B8
:0A051600AE071FEE60030080F7221D
:1004C700D3EF9400EE940040147D7C7C00ED1D700A
:0D04D700011CED4C70F7EF1F70E61E80E376
:0104E40022F5
:10040700E4759850F58775C830F5C9751BE2751AFC
:1004170004F519F518AF1BAE1AAD19AC187B20FA05
:10042700F9F81200FD8F1B8E1A8D198C18E4AC0693
:10043700AD07C39DFDE49CF5CBAF05EFF5CAC298A8
:08044700D29CD2ACD2CAD2AFA4
:01044F00228A
:0604FC0014F9120026FFB6
:080502008F993099FDC2992286
:03002300020520B3
:08052000309805C29885991777
:0105280032A0
:100003008B188A19891AAB18AA19A91A1200266023
:0F0013000D051AE51A700205191204FC80E82287
:0902AF00F50BEC3EF50AAD0BFC69
:0A02B8008B188A19891AAB05AA04F5
:1002C2007C007D0AAF03AE0212006CED2430F51EF5
:1002D200751D2E7C007D0AAF03AE0212006C7C00FD
:1002E2007D0A12006CED2430F51CAE02AF037C00D7
:1002F2007D6412006C7C007D0A12006CED2430F5E6
:100302001BAB18AA19A91A120026600D051AE51AC4
:10031200700205191204FC80E87F20120502E4FE37
:0D032200741B2EF8E6FF1205020EBE04F358
:01032F0022AB
:060330008B188A19891ADE
:10033600AB18AA19A91A120026600D051AE51A703B
:100346000205191204FC80E87F20120502E4FEABC8
:100356001BAA1CA91D8E8275830012003FFFC45480
:100366000FF51EEF540FF51FE4FD741E2DF8E6FF82
:10037600D394094006EF2437F68004743026F674C9
:100386001E2DF8E6FF1205020DBD02DE7F201205C6
:05039600020EBE05BAD5
:01039B00223F
:10018F00E50D6401707AE50E250F25102511F50C8C
:10019F0065127BFF70447A0479508B148A15891687
:1001AF00E50EFE7C00E4250F1202AF7F2012050240
:1001BF001205027BFF7A0479548B148A158916E590
:1001CF0010FE7C00E425111202AF7F2012050212EF
:1001DF0005027BFF7A04795A802C7A0479668B1496
:1001EF008A158916751B00751C00751D0E120330BC
:1001FF007F201205021205027BFF7A04796D8006BB
:10020F007BFF7A04797A8B148A1589161200037F83
:04021F000A020502C8
:0B050A00E4FF7E05780EE4F608DEFC3E
:0105150022C3
:10048F00E4FCFBE4FA20800B0AC3EA942C748094FA
:10049F008140F27F02120516E4FD3080010DE4FA6F
:1004AF003080070AEAC394C840F6EC25E0FCED4221
:0704BF00040BBB08CEAF04E3
:0104C6002213
:10039C00C2807F027E001204C7D2807F0112051634
:1003AC00D280E4F50D20804D750D01F508F509207E
:1003BC0080130509E50970020508D3942CE508940F
:1003CC000140EC8019E4F508F5093080170509E5C2
:1003DC000970020508D3942CE508940140EC7513C0
:1003EC00017F0022E4F912048F740E29F8A6070984
:0A03FC00B905F38003E4F50D7F015D
:0104060022D3
:1004E500C28112040712050A12039C12018F7FD0E4
:0704F5007E071204C780EE30
:03000000020223D6
:0C022300787FE4F6D8FD75811F02026AA6
:10002600BB010689828A83E0225002E722BBFE02D8
:09003600E32289828A83E493220B
:10003F00BB010CE58229F582E5833AF583E0225076
:10004F0006E92582F8E622BBFE06E92582F8E222C0
:0D005F00E58229F582E5833AF583E49322DA
:10006C00BC000BBE0029EF8DF084FFADF022E4CC78
:10007C00F875F008EF2FFFEE33FEEC33FCEE9DEC41
:10008C00984005FCEE9DFE0FD5F0E9E4CEFD22ED87
:10009C00F8F5F0EE8420D21CFEADF075F008EF2FD1
:1000AC00FFED33FD4007985006D5F0F222C398FDC2
:0500BC000FD5F0EA225F
:1000C10075F008758200EF2FFFEE33FECD33CDCCF6
:1000D10033CCC58233C5829BED9AEC99E582984079
:1000E1000CF582EE9BFEED9AFDEC99FC0FD5F0D656
:1000F100E4CEFBE4CDFAE4CCF9A88222B800C1B980
:100101000059BA002DEC8BF084CFCECDFCE5F0CBBD
:10011100F97818EF2FFFEE33FEED33FDEC33FCEBF6
:1001210033FB10D703994004EB99FB0FD8E5E4F9B1
:10013100FA227818EF2FFFEE33FEED33FDEC33FC9E
:10014100C933C910D7059BE99A4007EC9BFCE99A92
:10015100F90FD8E0E4C9FAE4CCFB2275F010EF2FD7
:10016100FFEE33FEED33FDCC33CCC833C810D707D7
:100171009BEC9AE899400AED9BFDEC9AFCE899F812
:0E0181000FD5F0DAE4CDFBE4CCFAE4C8F922A5
:10022F000204E5E493A3F8E493A34003F68001F2FC
:10023F0008DFF48029E493A3F85407240CC8C333D0
:10024F00C4540F4420C8834004F456800146F6DF9F
:10025F00E4800B0102040810204080900529E47E01
:10026F00019360BCA3FF543F30E509541FFEE49394
:10027F00A360010ECF54C025E060A840B8E493A35B
:10028F00FAE493A3F8E493A3C8C582C8CAC583CA86
:10029F00F0A3C8C582C8CAC583CADFE9DEE780BE3E
:0105300000CA
:00000001FF
